:020000040000fa
:080000000002040000000000f2
:020000040000fa
:10000800f0220000f0220000f0220000f0220000a0
:10001800f0220000f0220000f0220000f022000090
:10002800f0220000f0220000f0220000841f0000ef
:10003800f0220000f0220000f0220000f022000070
:10004800f0220000f0220000f0220000f022000060
:10005800f0220000f0220000f0220000f022000050
:10006800f0220000f0220000f0220000f022000040
:10007800f0220000f0220000f0220000f022000030
:10008800f0220000f0220000f0220000f022000020
:10009800f0220000f0220000f0220000f022000010
:1000a800f0220000f0220000f0220000f022000000
:1000b800f0220000f0220000f0220000f0220000f0
:1000c800f0220000f0220000f0220000f0220000e0
:1000d800f0220000f0220000f0220000f0220000d0
:1000e800f0220000f0220000f0220000f0220000c0
:1000f800f0220000f0220000f0220000f0220000b0
:10010800f0220000f0220000f0220000f02200009f
:10011800f0220000f0220000f0220000f02200008f
:10012800f0220000f0220000f0220000f02200007f
:10013800f0220000f0220000f0220000f02200006f
:10014800f0220000f0220000f0220000f02200005f
:10015800f0220000f0220000f0220000f02200004f
:10016800f0220000f0220000f0220000f02200003f
:10017800f0220000f0220000f0220000f02200002f
:10018800f0220000f0220000f0220000f02200001f
:10019800f0220000f0220000f0220000f02200000f
:1001a800f0220000f0220000f0220000f0220000ff
:1001b800f0220000f0220000f0220000f0220000ef
:1001c800f0220000f0220000f0220000f0220000df
:1001d800f0220000f0220000f0220000f0220000cf
:1001e800f0220000f0220000f0220000f0220000bf
:0801f800f0220000f0220000db
:020000040000fa
:10020800f0220000f0220000f0220000f02200009e
:10021800f0220000f0220000f0220000f02200008e
:10022800f0220000f0220000f0220000841f0000ed
:10023800f0220000f0220000f0220000f02200006e
:10024800f0220000f0220000f0220000f02200005e
:10025800f0220000f0220000f0220000f02200004e
:10026800f0220000f0220000f0220000f02200003e
:10027800f0220000f0220000f0220000f02200002e
:10028800f0220000f0220000f0220000f02200001e
:10029800f0220000f0220000f0220000f02200000e
:1002a800f0220000f0220000f0220000f0220000fe
:1002b800f0220000f0220000f0220000f0220000ee
:1002c800f0220000f0220000f0220000f0220000de
:1002d800f0220000f0220000f0220000f0220000ce
:1002e800f0220000f0220000f0220000f0220000be
:1002f800f0220000f0220000f0220000f0220000ae
:10030800f0220000f0220000f0220000f02200009d
:10031800f0220000f0220000f0220000f02200008d
:10032800f0220000f0220000f0220000f02200007d
:10033800f0220000f0220000f0220000f02200006d
:10034800f0220000f0220000f0220000f02200005d
:10035800f0220000f0220000f0220000f02200004d
:10036800f0220000f0220000f0220000f02200003d
:10037800f0220000f0220000f0220000f02200002d
:10038800f0220000f0220000f0220000f02200001d
:10039800f0220000f0220000f0220000f02200000d
:1003a800f0220000f0220000f0220000f0220000fd
:1003b800f0220000f0220000f0220000f0220000ed
:1003c800f0220000f0220000f0220000f0220000dd
:1003d800f0220000f0220000f0220000f0220000cd
:1003e800f0220000f0220000f0220000f0220000bd
:0803f800f0220000f0220000d9
:020000040000fa
:100400000fcb21000e7f22000e01880000000000ab
:100410000c0007000004220001002000110007006a
:10042000000020000000e000020032000000020096
:1004300000000000b41f0200000000000040da00cd
:100440000000fe004440a900800420000000e000fd
:100450000300320000002000a00188004440a800f2
:100460000000060091018800800078000000eb0089
:1004700015003700e280400032a0b4009101ba00bc
:10048000e280400032a0b4009102ba00e280400055
:1004900032a0b4000002eb00472bde00f507b200eb
:1004a000602ce10004003a000059eb008301e900f0
:1004b000fdff3e00040037006128e100010032002a
:1004c0000082eb00040007001101ba000200e00006
:1004d000e8ff3a00000006003159ba008301e90044
:1004e0000c0032002159ba008301e90008003200f3
:1004f0000400e00003003a00e280400032a0b400b3
:10050000f5ff370011d9ba008301e900faff3a007c
:100510008100e800e180400032a0b4000000060045
:10052000ba21040000000000e422040000000000e2
:10053000c822040000000000e68747008e1f7800f4
:10054000d0bf9f0066875700012f78000e0037004c
:10055000dfb99700134178006fb89700904078009a
:10056000814f5100040032000280fb008180fb00bb
:1005700001005000080037008301e800d3bf9f004e
:10058000000fe800040178000202e900e00f5100ca
:10059000efff3a00020078004f0778006f00b100cb
:1005a000000006008001780002003700b159780091
:1005b000040178000202e900e00f5100fbff3a005d
:1005c00000000600800178000200370081597800a1
:1005d000040178000202e900e00f5100fbff3a003d
:0405e0000000060011
:020000040000fa
:1005e40011110000222200003333000044440000b3
:1005f4005555000066660000777700008888000083
:1006040099990000aaaa0000bbbb0000cccc000052
:10061400dddd0000eeee0000cecd0000acab00004e
:10062400494400004c45000000a50000a5a50000b9
:10063400a5a50000a5a50000a5a50000a5a500008e
:10064400a5a50000a5a50000a5a50000a5a500007e
:10065400a500000054610000736b0000203100000d
:1006640000540000617300006b20000032000000a1
:020000040000fa
:100674001200fa005007980061079800720798006a
:10068400030f98000000eb00000f78005e0090005c
:100694001007980001003700000000008d0e0700cd
:1006a4001e00900060089000e00f500035003200fa
:1006b4001e009000b000900021079800ee0090000a
:1006c4001e009000810c07000e089000e00f5000ff
:1006d4001a003a001e009000600890008000e900b3
:1006e4001e009000610898001e0090001000780021
:1006f400e00f500004003a00350f07008000780036
:100704001e009000110098001e0090004000900010
:10071400e00f5000180032001e00900068004000f6
:1007240017090700e10f500013003a00421b0200b2
:1007340000000000000000000f0037001e009000c1
:10074400ae009000310098001e0090001008900048
:10075400e00f5000080032001e00900072004000bc
:1007640007090700e00f500003003200421b02009b
:100774000000000000000000690e070010002000c7
:10078400460037007e009000e00f500003003a005e
:10079400630e07000000eb00400037001e007800e5
:1007a400e00f500004003a00660047001d0f0700e8
:1007b40010002000000f7800590e0700500f0700aa
:1007c400440e07001e00900010109000e10f40003e
:1007d40003003a001e0090008000eb001110980006
:1007e4001e00900020109000e10f400003003a002a
:1007f4001e0090008000eb0021109800480e0700b6
:10080400ee0047006600470014090700e00f50009f
:100814001e003a001e0090008a0e0700e00f5000f0
:10082400160032001e00900010007800e00f500007
:1008340005003a00270e07001e00900010009000eb
:10084400ac070700360e0700fe0090001e00900063
:10085400720040002a0d07001e0090001e080700c9
:10086400f1040700e00f50008bff3a00421b020026
:10087400000000000000000088ff37001e00900008
:1008840015080700e804070084ff37001e009000e5
:1008940011080700e40407000000eb000080fa00e0
:0408a400000006004a
:020000040000fa
:1008a8001600fa00000f9800110f9800220f980008
:1008b8000e0890001007980090028000200798000a
:1008c800ff3ffc0011028000f0f12f0080806000e3
:1008d8000002200000807000100288002e009000a6
:1008e8009002880000008800000000001e009000b0
:1008f80060089000e00f500020003a002e08900099
:10090800e00f5000110032001e00900072004000fd
:10091800800078002e089000c80b07009002800025
:1009280030079800ff3ffc0011028000f0f12f0013
:1009380000806000100288003e009000900288004d
:1009480000008800c0ff2f00600037009002800080
:1009580040079800ff3ffc0011028000f0f12f00d3
:1009680000806000100288004e009000900288000d
:10097800000088000000eb0054003700900280005f
:1009880050079800ff3ffc0011028000f0f12f0093
:1009980000806000100288005e00900090028800cd
:1009a800000088009002800060079800ff3ffc006c
:1009b80011028000f0f12f0080806000000220000a
:1009c80000807000100288006e009000900288007d
:1009d80000008800000000001e00900060089000e1
:1009e800e00f50002c0032001e009000b000900074
:1009f8001e00900000109000808040001e009000b3
:100a0800310098001e009000b00090001e00900079
:100a180010009000808f5000040039001e009000e4
:100a2800900078001e009000310098001e00900091
:100a3800600890008000e9001e009000610898009e
:100a48001e009000801090001e0090003000900062
:100a580001017800800078001e089000cffe070092
:100a680010002000000f78001e0090004000900049
:100a7800e00f50000a0032001e009000680040009d
:100a8800670c0700e00f500005003200b0ff2f0090
:100a9800000f7800020037000000eb00000f78001c
:100aa8009002800070079800ff3ffc001102800050
:100ab800f0f12f0000806000100288007e00900096
:100ac80090028800000088001e0078000080fa006c
:040ad8000000060014
:020000040000fa
:100adc001400fa004007980052079800630798002a
:100aec0071079800040f9800150f98001000200053
:100afc00000f78004e009000100798000000eb00eb
:100b0c00200798000e089000e00f500005003200fe
:100b1c001e009000b0109000201090000e09900064
:100b2c000089be001e009000c01090003107980094
:100b3c001e00900021002000411098007e009000c3
:100b4c00010020004200200003002000820f500012
:100b5c00838f58002d003e00006001002a003700f2
:100b6c00030037000d003700150037001a0037005e
:100b7c001e00900020119000b01190005e009000bb
:100b8c00ee00900000007100818071001e01900049
:100b9c0020119800311198001c0037001e009000a5
:100bac00b01090002010900061004000e0804800e0
:100bbc001e0190002011980031119800130037008d
:100bcc001e0090005e019000ee0190002210980033
:100bdc00331098000d0037003e009000e20f5000db
:100bec00060032001e0090005e019000ee019000a5
:100bfc002210980033109800040037000000eb001e
:100c0c00000f780001003700000000003e0090004b
:100c1c00e10f50002a003a0050e38000e00f500032
:100c2c0016003a001e0090000080e800ba0a070087
:100c3c001e009000b0089000e0e28000808f500011
:100c4c00030036001e00900030089000e0e288009f
:100c5c001e0090000081e8001e00900030089000fb
:100c6c006a00b9008000780040c02100008040007c
:100c7c0082007800770b0700050037001e009000fb
:100c8c006c0040008000780040c42100710b07000c
:100c9c001e009000b008900060e5800030089000c5
:100cac00808f5000060036001e089000e00f5000a8
:100cbc00030032001e08900011002000010878008b
:0c0ccc001e0078000080fa000000060006
:020000040000fa
:100cd8001600fa00000f9800110f9800220f9800d4
:100ce8000e089000100798009002800020079800d6
:100cf800ff3ffc0011028000f0f12f0080806000af
:100d08000002200000807000100288002e00900071
:100d18009002880000008800000000001e0090007b
:100d2800240d0700e00f5000200032002e0890002c
:100d3800e00f5000110032001e00900068004000d3
:100d4800800078002e089000bc0a070090028000fe
:100d580030079800ff3ffc0011028000f0f12f00df
:100d680000806000100288003e0090009002880019
:100d780000008800c0ff2f00480037009002800064
:100d880040079800ff3ffc0011028000f0f12f009f
:100d980000806000100288004e00900090028800d9
:100da800000088000000eb003c0037009002800043
:100db80050079800ff3ffc0011028000f0f12f005f
:100dc80000806000100288005e0090009002880099
:100dd800000088009002800060079800ff3ffc0038
:100de80011028000f0f12f008080600000022000d6
:100df80000807000100288006e0090009002880049
:100e080000008800000000001e009000e00890002c
:100e18001e00900070089000808f50001200310072
:100e28000001eb009e0890001e009000b902070028
:100e380010002000000f78001e009000100890009d
:100e4800e00f50000a0032001e00900072004000bf
:100e5800730b0700e00f500005003200b0ff2f00b1
:100e6800000f7800020037000000eb00000f780048
:100e78009002800070079800ff3ffc00110280007c
:100e8800f0f12f0000806000100288007e009000c2
:100e980090028800000088001e0078000080fa0098
:040ea8000000060040
:020000040000fa
:100eac001600fa0030079800410798005207980086
:100ebc006307980074079800050f9800160f9800a8
:100ecc00270f98009e0890005e009000c109070053
:100edc00100798001e009000e00f50004f003200e9
:100eec001e009000c0089000210798001e00900082
:100efc00c00890005e0090000000e9000000400077
:100f0c00808040001e009000710898005e029000e6
:100f1c00ae0990007e019000ce0090001e00900063
:100f2c00690407006e019000be0090002e00900036
:100f3c00d5030700800078001e009000010878009f
:100f4c000e089000e00f5000030032000e089000d5
:100f5c009e009000010878005c0c0700c0e2800045
:100f6c000000e800c0e2880060e58000e00f50005f
:100f7c0007003a001e00900060e58800c0e2800087
:100f8c00e10f50000c003a00ec0a07000a00370091
:100f9c00f0e28000e00f500007003a0060e58000ae
:100fac00b00890007e009000808f500002003e0040
:100fbc009e00900061e5880030e380000000e800ae
:100fcc0030e388001e009000b0089000e0e2800042
:100fdc00808f5000030036001e00900030089000f7
:100fec00e0e288001e0090000081e8001e009000e6
:100ffc00300890006a00b9008000780040c02100e1
:10100c000080400082007800920a07001000200047
:10101c00000f7800400c0700020037000080eb0046
:10102c00000f78001e007800e10f50000b003a0012
:10103c00f0e28000e00f50000800320060e5800014
:10104c00b00890007e009000808f500003003100ab
:10105c00421b020000000000000000001e0078008f
:08106c000080fa0000000600fc
:020000040000fa
:101074001000fa00300798004207980053079800c0
:10108400610798007407980010002000000f780092
:101094003e009000100798000e0c07007e009000a0
:1010a400e00f5000050032001e009000b0109000c8
:1010b400201090007e0190000089be001e00900068
:1010c400c0109000210798001e009000210020000d
:1010d400411098006e0090000100200042002000a2
:1010e40003002000820f5000838f58002d003e0023
:1010f400006001002a003700030037000d003700ac
:10110400150037001a0037001e00900020119000cf
:10111400b01190004e009000de00900000007100bd
:10112400818071001e0190002011980031119800f7
:101134001c0037001e009000b0109000201090009a
:1011440061004000e08048001e01900020119800da
:1011540031119800130037001e0090004e019000da
:10116400de01900022109800331098000d00370023
:101174002e009000e20f5000060032001e00900086
:101184004e019000de019000221098003310980068
:10119400040037000000eb00000f78000100370066
:1011a400000000002e009000e10f50001e003a00e5
:1011b4001e0090000080e800590907001e009000fe
:1011c400b0089000e0e28000808f500003003600f9
:1011d4001e00900030089000e0e288001e0090009d
:1011e4000081e8001e009000300890006a00b900f9
:1011f4008000780040c02100008040008200780018
:10120400160a07001e009000b008900060e58000f8
:1012140030089000808f500003003600421b02000b
:101224000000000000000000bd0b07001e00780055
:081234000080fa000000060032
:020000040000fa
:10123c001200fa0050079800610798007207980096
:10124c00030f98000000eb00000f78005e00900088
:10125c001007980001003700000000009b0b0700ee
:10126c001e009000e00890001e0090007008900096
:10127c00808f5000030039000e089000e20f5000e0
:10128c001b003a000e099000ee0090001e0090002a
:10129c009f010700200798001e0090001008900086
:1012ac00e00f5000090032001e0090007200400058
:1012bc0031060700e10f50000a003a00421b020001
:1012cc000000000000000000060037002e00900017
:1012dc00e00f500003003200421b0200000000002f
:1012ec00000000008c0b0700100020003d003700b0
:1012fc007e009000e00f500003003a00860b0700c0
:10130c000000eb00370037001e007800e00f5000a3
:10131c0004003a0066004700400c07001000200053
:10132c00000f78007c0b0700730c0700670b07009d
:10133c001e00900010109000e10f400003003a00d6
:10134c001e0090008000eb00111098001e00900011
:10135c0020109000e10f400003003a001e009000a6
:10136c008000eb00211098006b0b0700ee0047008b
:10137c006600470037060700e00f500015003a00e2
:10138c001e0090008a0b0700e00f50000d00320089
:10139c00fe0090001e00900068004000560a0700f6
:1013ac001e0090004a0507001d020700e00f5000c8
:1013bc00a9ff3a00421b02000000000000000000e0
:1013cc00a6ff37001e00900041050700140207001d
:1013dc00a2ff37001e0090003d0507001002070019
:0c13ec000000eb000080fa00000006008a
:020000040000fa
:1013f8000a00fa000000eb00000f780050e38000bc
:10140800e00f50005e003a00d0e280000000e800e3
:10141800d0e28800d0e28000100798001e009000fb
:10142800e00f50000a003a0001e28000210798000e
:1014380010e2800000e288002e00900010e2880090
:1014480020e380000000e80020e388006b0b070021
:1014580040e380009e009000808f50003c003900df
:10146800010037000000000000e280001000780052
:10147800e00f500003003a000080eb0040e38800d2
:101488003300370000e28000300090003000900008
:10149800300798003e0090009000900041079800a7
:1014a8009e0090004e009000808f50000300310095
:1014b8004e00900040e38800250037003e00900071
:1014c8000080e800950807003e0090002008900082
:1014d800e00f5000030032003e0090006c00400016
:1014e8008e0807003e009000b0089000e0e28000ff
:1014f800808f5000030036003e00900030089000b6
:10150800e0e288003e0090000081e8003e00900084
:10151800300890006a00b9008000780040c02100bf
:1015280000804000820078004b0907003e009000d0
:10153800b008900060e5800030089000808f50006f
:10154800c8ff390010002000000f7800c6ff3700e0
:1015580060e58000300890006a00b90080007800db
:1015680040c021000080400010007800e10f5000ca
:101578000600360010002000000f78000300370036
:1015880000e380000000e80000e3880010e380002a
:10159800e00f50000200320010002000000f780019
:0c15a8001e0078000080fa000000060021
:020000040000fa
:1015b4000c00fa0040079800510798000000eb0067
:1015c400000f78005e009000e30f50000200360028
:1015d4003000200050079800be0a07004e0090001b
:1015e400e00f500002003a0060e58000010037007f
:1015f4004e009000100798001e009000801090008c
:1016040021079800ae0090005e009000808f50008b
:1016140051003200de0090002e009000808f5000b8
:101624000c00360060e580009e009000808f500022
:101634000e00320060e58000b00890005e0090006b
:10164400808f500009003e0010002000000f780039
:101654000600370060e580009e009000808f5000f7
:1016640002003a0010002000000f78001e009000d5
:10167400b0089000310798001e0090008010900080
:101684001e00900030089000808f500003003a0044
:101694001e009000de009000310898001e009000ab
:1016a400de009000011098001e0090006000900081
:1016b400e00f5000040035005e009000e4001000cc
:1016c4001e009000610098001e00900050019000e0
:1016d4003e0090006a00b9008000780040c02100fc
:1016e40000804000800f510015003a001e00900059
:1016f4000080e8000a0807001e009000b00890006f
:10170400e0e28000808f5000030036001e0090004d
:1017140030089000e0e288001e0090000081e8009c
:101724001e009000300890006a00b9008000780024
:1017340040c021000080400082007800c7080700f4
:101744001e007800e10f500003003a00421b020023
:101754000000000000000000710a07000080fa0089
:04176400000006007b
:020000040000fa
:101768001000fa00200798003107980042079800f7
:10177800530798006407980075079800540a0700f3
:1017880060e5800040109000e20f50003100320008
:1017980064e5800024119000b41190002e009000a0
:1017a800be0090000080ea008180ea008202780092
:1017b80003017800800178000100780083826200cc
:1017c8000000610001002000c000dd0000002000d2
:1017d8000001be006128b80000017100818171001c
:1017e800221298003312980060e580001100200052
:1017f800411098007e009000e00f50001500320064
:1018080060e580000080e800c40707007e009000c3
:10181800e10f400006003a0060e580000080e80023
:1018280080007800e0c421008b080700060037001c
:10183800d1e280007e0090000080400010079800f0
:101848001e00900048090700421b0200000000002b
:1018580000000000310a07001d0a07006e00900012
:10186800e00f50000500320060e58000b0109000e5
:10187800201090006e0190000089be0060e5800095
:1018880040109000e10f500003003a000000eb0008
:10189800000f78001800370064e5800024119000dc
:1018a800b41190004e009000de0090000080ea0025
:1018b8008180ea00820278000301780080017800c4
:1018c80001007800838262000000610001002000ae
:1018d800c000dd00000020000001be006128b80043
:1018e8000001710081817100221298003312980062
:1018f80010002000000f780060e580008000eb00f9
:1019080041109800050a07001e0078000080fa00c0
:0419180000000600c5
:020000040000fa
:10191c000800fa0010079800210798003207980079
:10192c000000eb00000f78001e00900000109000eb
:10193c00e00f50000c003a001e00900010007800e0
:10194c00e00f50004d003a001e0090001000900077
:10195c00a4030700000f78001e0090008000eb002d
:10196c0011009800450037003e009000e00f500039
:10197c0019003a001e009000801090001e0090008c
:10198c002000900001017800ae00900002fb0700df
:10199c001e009000a00090001e009000001090000f
:1019ac00808040001e009000210098001e009000d6
:1019bc00a00090001e00900010009000808f50003e
:1019cc002e0039001e009000900078001e00900040
:1019dc0021009800290037001e0090008010900014
:1019ec001e0090003000900001017800ae009000c5
:1019fc00e9fa07001e009000b00090001e00900055
:101a0c00001090000000ea00808040001e00900052
:101a1c00310098001e009000b00090001e00900055
:101a2c0010007800808f5000080031001e009000dc
:101a3c00900090001e009000001090000000ea0042
:101a4c00808040001e009000310098003e00900005
:101a5c00e20f500009003a001e0090006008900050
:101a6c00e00f5000050032001e009000600890004e
:101a7c008000e9001e009000610898001e00900094
:101a8c00600890008000e8001e009000610898003b
:0c1a9c001e0078000080fa000000060028
:020000040000fa
:101aa8000800fa00780a070031e5800001005000bc
:101ab80040e588005400370020e580000000e80079
:101ac80020e5880040e580000000e90040e5880046
:101ad80020e58000e00f500044003a00a0e48000b8
:101ae800000f7800b0e48000a0e488001e007800b1
:101af800b0e488003e003700a0e480003000900089
:101b080030009000100798001e0090009000900090
:101b180020e58000808f50003a003e00900280004f
:101b280020079800ff3ffc0011028000f0f12f0011
:101b38008080600000022000008070001002880091
:101b48002e0090009002880000008800000000002d
:101b58001e0090000080e800f00607001e009000bc
:101b680020089000e00f5000030032001e00900093
:101b78006c004000e90607009002800030079800da
:101b8800ff3ffc0011028000f0f12f000080600090
:101b9800100288003e009000900288000000880033
:101ba8001e009000b008900010e58000808f500063
:101bb800030036001e0090003008900010e58800f1
:101bc8001e0090000081e8001e0090003008900080
:101bd8006a00b90080007800c0c62100008040007b
:101be800820078009c070700010037000000000011
:101bf800a0e4800010007800e00f5000beff3a001b
:101c0800010037000000000040e58000e00f5000b0
:101c1800a9ff3a0020e5800030e588000080fa003e
:041c280000000600b2
:020000040000fa
:101c2c000400fa000000eb00000f78002709070001
:101c3c0050e380000000e90050e3880050e380008e
:101c4c00e00f500041003a00c0e28000e00f50006d
:101c5c003e0032002300370050e28000300090003c
:101c6c00100798001e0090006c004000aa060700a8
:101c7c001e0090000080e800a70607001e009000e0
:101c8c00b0089000e0e28000808f50000300360026
:101c9c001e00900030089000e0e288001e009000ca
:101cac000081e8001e009000300890006a00b90026
:101cbc008000780040c02100008040008200780045
:101ccc00640707001e009000b008900060e58000db
:101cdc0030089000808f5000020039001000200066
:101cec0010e3880020e28000e00f5000daff3a0099
:101cfc0000e38000e00f50000c00320008003700b9
:101d0c00bafd0700e00f5000020032001000200066
:101d1c0010e3880000e380000000e90000e3880085
:101d2c0000e38000e00f5000f5ff3a0010e3800064
:101d3c00e10f500005003a0010002000000f780061
:101d4c00421b02000000000000000000f208070027
:0c1d5c001e0078000080fa000000060065
:020000040000fa
:101d68000a00fa00200798003107980042079800f7
:101d7800c0012000eb050700100798001e00900026
:101d8800e00f50003c00320070e58000e00f50008a
:101d980003003a001e00900070e588000c08070058
:101da8003e009000e10f50000200360010002000b5
:101db800300798001e0090008000eb005108980042
:101dc8001e009000be009000310898001e00900090
:101dd800ce009000410898001e009000ae009000d0
:101de800010878001e0090000080e800b60907008e
:101df8001e0090006c004000b30907001e00900010
:101e08009e009000410098001e0090009e009000e7
:101e1800110898003e009000e20010001e0090009b
:101e2800610098001e009000b008900010e5800046
:101e3800808f5000030036001e009000300890008c
:101e480010e588001e0090000081e8001e00900048
:101e5800300890006a00b90080007800c0c62100f0
:101e68000080400082007800fb0607001000200078
:101e7800000f7800020037000080eb00000f7800a8
:0c1e88001e0078000080fa000000060038
:020000040000fa
:101e94002a00fa002017980031179800421798007a
:101ea4000e0078004000b000212f28000f00090028
:101eb400311878003e109000100798002e10900002
:101ec4009e009000010878002e1090000080e80029
:101ed400201798002e1090008000eb000108780075
:101ee4002e1090000080e800201798002e1090001b
:101ef4008000eb00010878002e1090000080e800bc
:101f040020179800ce1090002e1090000108780041
:101f14002e1090000080e800201798000000eb00cd
:101f2400000f78000a0037001e007800000040000f
:101f340000004700a00090002e10900001087800d7
:101f44002e1090000080e800201798001e0fe80073
:101f54001e007800ef0f5000f3ff360021028000ce
:101f64002e109000010878002e1090000080e800e8
:101f74002017980034c0bf008080fb002e10900012
:101f8400010878002e1090000080e80020179800c7
:101f94002e1090008000eb00010878002e109000b5
:101fa4000080e800201798002e1090000080fa00ae
:041fb4000000060023
:020000040000fa
:101fb8000a00fa0030079800410798004408070013
:101fc80060e58000b010900020109000e00f5000f5
:101fd800e08f58001a003a0060e5800011002000e8
:101fe800411098004e009000e00f5000140032009d
:101ff80060e580000080e800c80507004e009000fa
:10200800e10f400006003a0060e580000080e8002b
:1020180080007800e0c421008f0607000500370023
:10202800d1e280004e009000008f40001e00780032
:102038004d070700421b02000000000000000000de
:10204800360807002208070060e58000201190008c
:10205800b011900012079800230798001e00900006
:10206800ae009000e00f5000e08f58000f003200e3
:102078003e009000e00f50000500320062e580004d
:102088006000b8002011980031119800070037004f
:1020980062e5800022109000b210900061005000ac
:1020a800e0805800201198003111980060e5800008
:1020b8008000eb0041109800180807001e009000ef
:0c20c800ae0090000080fa00000006004e
:020000040000fa
:1020d4000c00fa00100798002107980032079800b6
:1020e40043079800540798000000eb00000f7800a5
:1020f4000d0037002e0090001e00400010407800b4
:102104009e0090009e804000fa8040008048780045
:102114002e0090001e00400010407800e04f500058
:10212400050032001e0fe8001e007800e30f500087
:10213400f0ff360001003700000000009e00900010
:102144000040eb00d05898003e009000e30f500090
:102154000200360030002000300798001e00900076
:10216400be009000310898001e009000be00900050
:10217400011098001e0090008000eb0011109800e0
:102184001e0090000080e800d00807001e009000a8
:102194006c004000cd0807001e0090009e009000d7
:1021a400410098003e009000e40010001e009000e2
:1021b400610098001e0090009e0090001108980095
:1021c4001e0190006000b8002011980031119800a1
:1021d4001e0090008000eb00411098000080fa007f
:0421e40000000600f1
:020000040000fa
:1021e8000600fa0010079800210798001e009000ca
:1021f800000f7800b60707001e007800100178006d
:102208001e007800f00890001e0078000010900072
:102218000088b90000007800800041001e007800a6
:10222800110098001e0078008000eb0061089800fb
:102238001e007800900078001e00780021009800a9
:102248001e007800100178001e00780070089000c9
:102258008000e9001e007800001090000088b90096
:1022680000007800800041001e00780031009800ce
:102278001e0078008080eb00111098001e00780086
:102288008080eb00211098002e009000e00f500095
:102298000d003a001e00780040009000e00f50004a
:1022a8000f0032009e00780068804000330207006b
:1022b800e10f50000a003a00421b02000000000033
:1022c80000000000060037009e007800688040008b
:1022d800d90607009e00780072804000d6060700e5
:1022e8008e070700100020000080fa00000006009a
:020000040000fa
:1022f8000a00fa0030079800410798003e00900055
:10230800000f78000000eb00100798001e0078000e
:10231800c0109000210798001e00780021002000be
:10232800411098001e007800b01090002010900016
:1023380061004000e08048001e01780020119800ec
:10234800311198002e009000e10f500028003a004b
:1023580050e38000e00f500014003a001e80e800af
:10236800ee0407001e007800b0089000e0e280004c
:10237800808f5000030036001e007800300890005f
:10238800e0e288001e81e8001e0078003008900016
:102398006a00b9008000780040c021000080400039
:1023a80082007800ac050700050037009e00780021
:1023b8006c8040008000780040c42100a60507001a
:1023c8001e007800b008900060e58000300890009a
:1023d800808f5000060036004e009000e00f50003d
:1023e800030032004e009000110020000108780020
:0823f8000080fa00000006005d
:020000040000fa
:102400000a00fa0020079800310798004207980058
:102410002e009000100798001e00900060089000a9
:10242000e00f5000310032001e009000b00090001c
:102430001e00900000109000808040001e00900060
:10244000310098001e009000b00090001e00900027
:1024500010009000808f5000040039001e00900092
:10246000900078001e009000310098001e0090003f
:10247000600890008000e9001e009000610898004c
:102480001e009000801090001e0090003000900010
:1024900001017800800078003e00900041f80700bc
:1024a0004e00900010007800e00f50000c003a0041
:1024b0001e00900040009000e00f50000800320025
:1024c0001e00900068004000d7050700e00f500094
:1024d000030032004e009000110020000108780037
:1024e00010002000000f7800020037000000eb0011
:1024f000000f78001e0078000080fa00000006003f
:020000040000fa
:102500000400fa0050e38000e00f500003003200a6
:102510001000200010e38800370037000000eb00b7
:1025200010e3880060e5800070089000000f7800dc
:102530001e007800740f5000420120007131280005
:102540001e007800fcf70700e00f50000800320082
:1025500060e58000fa00400060e580001008070098
:1025600003003700e0e280000000e900e0e28800bc
:10257000e0e280006a00b9008000780040c02100dd
:102580000080400010007800e00f5000f5ff32009e
:10259000e0e280006a00b9008000780040c02100bd
:1025a00000804000100798001e009000100090006e
:1025b000900090001e009000110098001e009000f6
:1025c000900090001e00900064004000808f50003a
:1025d00005003a001e00900010009000900090004e
:1025e0001e009000110098001e0090001000900046
:1025f0003000900060e588000080fa0000000600ce
:020000040000fa
:102600000c00fa0040079800510798000000eb000a
:10261000000f7800bb070700d0e280001007980089
:102620004e009000900078005e0090000080400016
:10263000200798004e009000900078001e00900047
:10264000808f50000c0036004e0090009000780003
:102650002e009000808f500012003600ae009000d7
:102660001e009000808f50000e00360010002000e9
:10267000000f78000b0037004e00900090007800ab
:102680002e009000808f500004003e00ae009000ad
:102690001e009000808f50000200360010002000c5
:1026a000000f78004e009000ae0090000108780006
:1026b0001e007800e00f50000500320060e5800049
:1026c0000080e800170407002e009000a80507000e
:1026d00056fd0700300798003e009000e00f5000c4
:1026e00003003a00421b020000000000000000004e
:0826f0000080fa000000060062
:020000040000fa
:1026f8000400fa00100798001e009000000f7800f0
:102708001e009000e00f5000350032001e007800d7
:10271800b008900060e5800030089000808f50007d
:102728002f0031001e00780060009000e00f50007c
:102738000500350060e5800030089000e4001000d6
:102748001e007800610098001e007800500190007b
:102758001e007800300890006a00b90080007800f8
:1027680040c0210000804000800f510018003a004e
:102778001e80e800e903070060e58000b0089000cb
:102788001e007800310898001e007800b0089000fc
:10279800e0e28000808f5000030036001e007800c1
:1027a80030089000e0e288001e81e8001e007800f2
:1027b800300890006a00b9008000780040c021000d
:1027c8000080400082007800a3040700040037005e
:1027d80060e58000b00890001e007800310898007d
:0827e8000080fa000000060069
:020000040000fa
:1027f0000600fa00200798002e00900010079800ad
:102800000000eb00000f78002e009000e00f500059
:102810002f0032001e009000101090008000e90090
:102820001e009000111098001e009000b00890004b
:102830001e00900000109000808f50002400320095
:102840001e00900010109000e00f500020003a0091
:102850001e0090000080e800b20307001e009000f8
:10286000801090001e009000310898001e0090001b
:1028700030089000e40010001e00900061009800f5
:102880001e009000b0089000e0e28000808f5000b1
:10289000030036001e00900030089000e0e288003f
:1028a0001e0090000081e8001e009000300890009b
:1028b0006a00b9008000780040c02100008040001c
:1028c000820078006604070010002000000f7800e6
:0c28d0001e0078000080fa0000000600e6
:020000040000fa
:1028dc000200fa00000f7800fc0507000f0037001b
:1028ec001e00780010089000e00f5000100032001d
:1028fc009e007800728040009f000700e00f50009f
:10290c00010032000d0707001e0078002010900017
:10291c008000e9001e007800211098001e0078004d
:10292c0020109000e00f5000edff3c00010037003c
:10293c00000000001e0078008080eb002110980041
:10294c00f5050700e10507000f0037001e007800b1
:10295c0040009000e00f5000100032009e00780004
:10296c006880400084000700e00f50000100320036
:10297c00f20607001e007800101090008000e9009d
:10298c001e007800111098001e00780010109000a6
:10299c00e00f5000edff3c0001003700000000008c
:1029ac001e0078008080eb0011109800da050700fb
:0829bc000080fa000000060093
:020000040000fa
:1029c4000600fa003200370090028000000f780001
:1029d400ff3ffc0011028000f0f12f0080806000b6
:1029e4000002200000807000100288001e007800a1
:1029f400900288000000880000000000f0e48000dd
:102a040030009000100798001e0090006c004000f9
:102a1400430307009002800020079800ff3ffc005a
:102a240011028000f0f12f00008060001002880085
:102a34002e00900090028800000088001e00900084
:102a44000080e800360307001e009000b0089000e4
:102a540010e58000808f5000030036001e009000b7
:102a64003008900010e588001e0090000081e80006
:102a74001e009000300890006a00b90080007800c1
:102a8400c0c621000080400082007800f3030700e4
:102a9400c0e48000e00f5000cbff3a000080fa0051
:042aa4000000060028
:020000040000fa
:102aa8000e00fa0030079800410798005207980076
:102ab800630798003e009000100798000000eb00a4
:102ac800200798001e009000e00890001e0090006b
:102ad80070089000808f5000030039006e0090004d
:102ae800e20f500020003a006e019000ce009000e6
:102af8001e00900087fb07001e0090002010900029
:102b0800e10f400010003a001e00900010089000ed
:102b1800e00f5000110032001e00900072004000cb
:102b280016000700e00f50000c0032005e00900015
:102b3800e00f5000090032005e00900011002000f4
:102b480001087800050037001e0090002010900052
:102b58008000e8001e00900021109800100020005e
:102b6800000f7800020037000000eb00000f78002b
:0c2b78001e0078000080fa00000006003b
:020000040000fa
:102b84000600fa00200798002e0090003000900004
:102b940030009000100798001e0090006c00400068
:102ba400df02070050e38000e00f500016003a00f7
:102bb4001e0090000080e800d90207001e0090006b
:102bc400b0089000e0e28000808f500003003600df
:102bd4001e00900030089000e0e288001e00900083
:102be4000081e8001e009000300890006a00b900df
:102bf4008000780040c021000080400082007800fe
:102c040096030700050037001e0090006c0040008a
:102c14008000780040c42100900307001e0090004b
:102c2400b008900060e5800030089000808f50006c
:102c34000500360010002000000f7800100020006e
:102c440010e38800020037000000eb00000f78005a
:0c2c54001e0078000080fa00000006005e
:020000040000fa
:102c60000800fa0020079800310798001a050700ad
:102c7000d0e28000100798003e009000100078001d
:102c8000e10f400003003a000000eb00000f780065
:102c9000250037002e0090009000780020e380008f
:102ca000808f5000080032002e00900090009000ad
:102cb0001e009000808f500003003e001000200096
:102cc000000f7800180037002e00900010009000d0
:102cd0009e009000808050003e0090001000780020
:102ce000808f50000e0031003e0090009000780070
:102cf0002e009000100190001e0090000000510076
:102d0000808040003e009000010878002e00900076
:102d1000c50507000000eb00000f78000200370037
:102d200010002000000f7800fe0407001e0078004d
:082d30000080fa00000006001b
:020000040000fa
:102d38000200fa0021ff070059fb070006003700d0
:102d480010e58000e00f50002c00320010e58000f4
:102d58000000e90010e5880010e580006a00b9006d
:102d680080007800c0c62100008040001000780074
:102d7800e00f5000f2ff320010e580006a00b90051
:102d880080007800c0c62100008f40001e00780037
:102d980010009000900090001e007800110098002c
:102da8001e007800900090001e0178006400410029
:102db800808f500005003a001e0078001000900037
:102dc800900090001e007800110098001e00780006
:102dd800100090003000900070e5880070e58000d9
:102de8001001780070e58000c008900070e5800050
:102df8000200010000000000010037000000000090
:082e08000080fa000000060042
:020000040000fa
:102e10000c00fa003007980041079800520798000c
:102e20003e009000100798000000eb00200798007b
:102e30001e00900060089000e00f50002400320057
:102e4000ce0090001e009000a10207001e0090001e
:102e5000600890008000e9001e0090006108980062
:102e60001e00900010109000e10f400010003a008a
:102e70001e00900040009000e00f50001100320052
:102e80001e009000680040003eff0700e00f500069
:102e90000c0032005e009000e00f5000090032008c
:102ea0005e00900011002000010878000500370046
:102eb0001e009000101090008000e8001e0090009e
:102ec0001110980010002000000f78000200370059
:102ed0000000eb00000f78001e0078000080fa0070
:042ee00000000600e8
:020000040000fa
:102ee4000800fa00300798000000eb00000f78009b
:102ef4003e009000100798000000eb0020079800a7
:102f04001e009000e6030700e10f500026003a007f
:102f140050e38000e00f50001e003a001e009000b5
:102f2400b008900060e5800030089000808f500069
:102f34000200390010002000000f78001e009000ed
:102f44000080e800f60107001e009000b008900021
:102f5400e0e28000808f5000030036001e009000e5
:102f640030089000e0e288001e0090000081e80034
:102f74001e009000300890006a00b90080007800bc
:102f840040c021000080400082007800b3020700a6
:102f9400050037001e0090006c004000800078009f
:102fa40040c42100ad0207001e0078000080fa0032
:042fb4000000060013
:020000040000fa
:102fb8000400fa0010079800450407001e0090005e
:102fc800e00f500002003a0060e580000100370081
:102fd8001e009000000f78001e80e800cf01070057
:102fe8001e00780020089000e00f50000300320017
:102ff8009e0078006c804000c80107001e80e80031
:1030080080007800e0c42100930207004304070011
:1030180060e580009e007800808f500010003a0024
:10302800f0e28000e00f500004003200421b020072
:1030380000000000000000000f00370071e280006f
:10304800c0e28000808f500003003a000000eb00cf
:1030580060e588000800370027fd070006003700f4
:10306800f0e28000e00f500003003200180407006f
:1030780062040700290407000080fa000000060027
:020000040000fa
:103088000a00fa0030079800410798003e009000b7
:10309800100798000000eb00200798001e00900021
:1030a800e00890001e00900070089000808f50008b
:1030b800210031001e009000600890008000e800a8
:1030c8001e009000610898001e00900020109000db
:1030d800e10f400010003a001e0090001008900018
:1030e800e00f5000110032001e00900072004000f6
:1030f800a2fe0700e00f50000c0032004e009000c6
:10310800e00f5000090032004e009000110020002e
:1031180001087800050037001e009000201090007c
:103128008000e8001e009000211098001000200088
:10313800000f7800020037000000eb00000f780055
:0c3148001e0078000080fa000000060065
:020000040000fa
:103154000800fa0020079800310798003e0090000c
:1031640090007800110798001e009000e10f4000c5
:1031740004003a002e009000c0009000010f780077
:103184000d0037002e00900064004000000f78000e
:10319400030037001e00780090009000010f7800b3
:1031a4001e00780010009000900078001e0090002f
:1031b400808f5000f7ff36001e00780090009000ca
:1031c4003e009000110098003e0090001000900016
:1031d400be009000210098003e0090009e00780000
:1031e400210098001e007800be0090001100980095
:1031f4003e009000ae009000410098002e00900028
:10320400100078008000e8002e009000010878008b
:083214000080fa000000060032
:020000040000fa
:10321c000c00fa003007980041079800224f9800e4
:10322c000000eb00100798004e009000e00f5000db
:10323c0003003a000000eb00000f78000500370097
:10324c00be0090004e0090000088b900000078008d
:10325c00000fe800610220001e804000b000070053
:10326c00200798002e009000e00f5000170032004d
:10327c004e009000e00f500004003a00ae009000a9
:10328c002e00900001087800050037002e009000f9
:10329c0061022000808040002e0090000108780020
:1032ac002e009000be009000710898002e00900037
:1032bc00ce00900001109800110020002e0090000c
:1032cc00c6fb07002e009000100798001e0090000f
:0832dc000080fa00000006006a
:020000040000fa
:1032e4000800fa002007980031079800be009000fb
:1032f40000002800808070002e00900001087800f3
:103304002e00900030009000100798002e009000ce
:10331400030107001e0090000080e8000001070080
:103324001e009000b0089000e0e28000808f500002
:10333400030036001e00900030089000e0e2880090
:103344001e0090000081e8001e00900030089000ec
:103354006a00b9008000780040c02100008040006d
:1033640082007800bd0107001e009000b0089000a4
:1033740060e5800030089000808f50000500360022
:1033840010002000000f78001000200010e38800d7
:10339400020037000000eb00000f78001e007800e8
:0833a4000080fa0000000600a1
:020000040000fa
:1033ac000400fa0020479800600220005c0007002f
:1033bc00000f78001e007800e00f5000260032004d
:1033cc001e0078008000eb00110098001e007800b1
:1033dc008000eb00010878001e0078008000eb00f4
:1033ec00210098001e0078008000eb00310098004e
:1033fc001e0078008000eb00610898001e00780029
:10340c0011002000710898001e0078008000eb006d
:10341c00011098001e0078008080eb0011109800bd
:10342c001e0078008080eb00211098009e00780030
:10343c00688040007f0207009e0078007280400088
:10344c007c0207008001eb000001eb008000eb0028
:10345c001e00780076f707001e0078000080fa0046
:04346c000000060056
:020000040000fa
:103470000400fa00100798001e009000000f78006a
:103480001e007800e00f50002600320060e580004a
:103490009e007800808f5000220032000e0307004b
:1034a0001e0078007f020700e10f50001c003a0068
:1034b0001e80e8009b0007001e007800b008900006
:1034c000e0e28000808f5000030036001e0078008c
:1034d00030089000e0e288001e81e8001e007800bd
:1034e000300890006a00b9008000780040c02100d8
:1034f0000080400082007800590107001e0078001b
:10350000b008900060e5800030089000808f500087
:1035100003003900421b0200000000000000000010
:0c352000000307000080fa000000060015
:020000040000fa
:10352c000400fa00100798000000eb00000f780070
:10353c001e0090006100600000407800e04f5000d9
:10354c00050032009e009000e0ff2f00008060001c
:10355c000080e80010079800e703070010e08000e7
:10356c00e00f500004003a0021802000e0ff2f0003
:10357c000080600010e0880001e080001e009000d8
:10358c0080804000d03f2100808f50000d003e0015
:10359c0001e080001e0090008080400000e0800070
:1035ac00808f50000700360011e0800000e08000a2
:1035bc00008f400001e080001e0090000080400061
:1035cc0000e0880096f907001e0078000080fa00e1
:0435dc0000000600e5
:020000040000fa
:1035e0000600fa001007980021079800a0022000aa
:1035f000ceff0700000f78001e007800e00f50009b
:10360000120032002e009000e00f500004003a003b
:103610001e00900000004000c4ff070001003700ba
:103620002e0090009e007800c00898001e007800d0
:1036300040089000e00f500004003a001e0078009f
:10364000cb0307000000eb00000f78001e0078009d
:10365000e00f5000080032001e0090000000400003
:10366000800078001e00780040089000010178007a
:10367000510a2000d3f307001e0078000080fa00f2
:043680000000060040
:020000040000fa
:103684004200f800801f7800000220001002880029
:10369400811f7800829fbe00849fbe00869fbe006b
:1036a400889fbe008a9fbe008c9fbe008e1f78003c
:1036b4003600f8003200f8004400f8003400f80046
:1036c40050e58000801f780060e580000f087800d6
:1036d400801202000000000060e58000900778007e
:1036e4004f00780050e588003400f9004400f900e8
:1036f4003200f9003600f9004f0778004f06be008b
:103704004f05be004f04be004f03be004f02be0073
:103714004f01be004f00be004200f9000000060049
:020000040000fa
:103724000400fa00100798001e009000400090006a
:10373400000f78001e009000100090009e00900082
:10374400a1009000210098001e009000200090002d
:103754009e00900091009000110098001e007800d7
:10376400900090001e009000808f500004003a00ea
:103774001e009000a00090001e0078001100980028
:103784001e0090008000eb00410098001e007800ad
:10379400100078008000e9001e007800010878001d
:1037a4001e007800100078000080fa000000060077
:020000040000fa
:1037b4000400fa008003eb000003eb008002eb003e
:1037c4000002eb008001eb003207200021312800c9
:1037d400a01b2200b4f50700000f78001e0078003b
:1037e400e10f500014003a00900280001007980086
:1037f400ff3ffc0011028000f0f12f008080600088
:103804000002200000807000100288001e0090005a
:103814009002880000008800000000000080eb0097
:1038240040e3880010002000f0e288000000eb0074
:10383400d0e28800e30107000080fa0000000600df
:020000040000fa
:103844000600fa00100798002107980021e580007f
:103854001e009000008f400070e580000080e800aa
:10386400afff070070e580009e007800110098000b
:1038740020e580009e007800808f50000500310014
:1038840070e580008080e800b0e4800030fe07002e
:103894000400370070e580008080e800a0e4800028
:1038a4002bfe07002e009000e00f500005003200b0
:1038b40070e580006c004000800078002e009000cd
:0c38c40023fe07000080fa000000060050
:020000040000fa
:1038d0000400fa00000f7800110798001e0078001d
:1038e00000109000e00f5000190032001e00780018
:1038f000b00090001e007800001090008080400012
:103900001e007800310098001e007800b000900082
:103910001e00780010009000808f500004003900d5
:103920001e007800900078001e007800310098009a
:103930001e007800801090001e007800300090007b
:1039400001017800800078001e00900015f3070048
:083950000080fa0000000600ef
:020000040000fa
:103958000800fa001007980021079800320798001d
:103968001e009000000f78001e007800e00890000c
:103978001e00780070089000808f500012003100ff
:103988000001eb00ae0090001e007800e1f7070090
:103998003e009000e00f50000b003a001e00780037
:1039a80010089000e00f5000070032009e007800d9
:1039b800728040009a000700e00f500002003200b9
:1039c80010002000010037003e0090000080fa003f
:0439d80000000600e5
:020000040000fa
:1039dc000800fa0010079800210798003207980099
:1039ec0060e580002e01900001002800810071002c
:1039fc006100980060e580006c0040008000780059
:103a0c001e0090001300070060e580000080e800b5
:103a1c0041ff07003e009000e10f400006003a0015
:103a2c0060e580000080e80080007800e0c42100a0
:103a3c000800070005003700d1e280003e0090002e
:103a4c00008f40001e007800c60007000080fa00be
:043a5c000000060060
:020000040000fa
:103a60000600fa0010079800210798001e00900039
:103a700090009000010f78002e0090009e007800ca
:103a8000110098001e007800a00090002e00900009
:103a9000210098001e00780020009000ae009000e9
:103aa000110098001e007800ae00900021009800e0
:103ab0002e0090009e009000410098001e00900093
:103ac000100078008000e8001e00900001087800d7
:083ad0000080fa00000006006e
:020000040000fa
:103ad8000c00fa0040079800510798004e0090002b
:103ae800100798000000eb00200798001e009000c7
:103af80060089000e00f50000c0032001e0090009b
:103b0800b000900031079800de0090001e00900081
:103b18006dff07001e009000be0090003100980065
:103b280010002000000f7800020037000000eb00b2
:103b3800000f78001e0078000080fa0000000600e0
:020000040000fa
:103b48000200fa000000eb00000f780007003700c1
:103b58001e0078006a00b9008000780040c021008b
:103b680000804000b40007001e0fe8001e00780027
:103b7800e30f5000f6ff3600c0c22100ae00070078
:103b880060c32100ac00070040c42100aa00070060
:103b9800e0c42100a8000700c0c2210000e288009c
:103ba80060c3210010e288000080fa0000000600cf
:020000040000fa
:103bb8000600fa00200798002e00900010079800d1
:103bc8001e009000e00f500002003a0060e58000ff
:103bd800010037001e009000100798003c01070004
:103be8001e00900040109000e20f500006003a00be
:103bf8001e0090008000eb0041109800100020008b
:103c0800000f7800020037000000eb00000f78007a
:103c1800420107001e0078000080fa00000006003c
:020000040000fa
:103c28000600fa00200798002e009000300090004f
:103c380030009000100798001e0090006c004000b3
:103c4800b6fe07001e0090006c004000800078005f
:103c580080c9210080ff07001e009000b008900076
:103c680070e5800030089000808f50000300390014
:103c780010002000000f7800020037000000eb0061
:103c8800000f78001e0078000080fa00000006008f
:020000040000fa
:103c98000600fa00200798000000eb00000f7800eb
:103ca8002e009000e00f50000c00320013020700b5
:103cb800d1e280002e00900000804000100798009c
:103cc80060e580000080e80094fe07001e00900078
:103cd80025000700d3f70700000f78001e007800c2
:103ce800e00f500003003a00421b020000000000f1
:0c3cf800000000000080fa000000060040
:020000040000fa
:103d04000600fa00100798002107980060e580007b
:103d14006c004000800078001e0090000cfd07003d
:103d240060e580000080e8007dfe07002e00900022
:103d3400e10f400006003a0060e580000080e800e2
:103d440080007800e0c4210044ff0700050037002c
:103d5400d1e280002e009000008f40001e00780009
:0c3d6400020007000080fa0000000600ca
:020000040000fa
:103d70000200fa00000f780060e580009e007800e5
:103d800011009800d0e280009e007800808f5000e3
:103d90000500310060e580008080e80010e28000ce
:103da000ecfc07000a00370060e580008080e80036
:103db00000e28000e7fc070040e380009e007800fe
:103dc000808f5000020031001e00780040e3880020
:083dd0000080fa00000006006b
:020000040000fa
:103dd8000200fa000000eb00000f7800070037002f
:103de8001e0078006a00b90080007800c0c6210073
:103df80000804000100007001e0fe8001e00780039
:103e0800e10f5000f6ff360000c821000a00070045
:103e1800a0c821000800070080c92100060007008b
:103e280000c82100a0e48800a0c82100b0e48800f0
:083e38000080fa000000060002
:020000040000fa
:103e40000200fa00000f78009e00780064804000b5
:103e5000800078001e007800110098001e00780095
:103e60008080eb00210098009e0078006480400074
:103e7000800078001e007800310098009e007800d5
:103e800064804000800078001e00780041009800a7
:103e90001e0078008000eb00010878000080fa0026
:043ea0000000060018
:020000040000fa
:103ea4000600fa00200798000000eb00000f7800dd
:103eb4002e009000100798001e009000d000900083
:103ec400e0c42100808f50000b003a001e009000d7
:103ed400a008900040c42100808f500006003200ea
:103ee4001e00900020089000e00f500002003a00ed
:103ef40010002000000f78001e0078000080fa00f7
:043f040000000600b3
:020000040000fa
:103f08003600f800809fbe00829fbe00849fbe00de
:103f1800869fbe003400f80000002000a001880041
:103f28000000fa008460a90031f50700e00f500096
:103f380003003200421b02000000000000000000e5
:103f48000080fa003400f9004f03be004f02be00a3
:103f58004f01be004f00be003600f90000400600c9
:020000040000fa
:103f68000000fa00f30007007a010700e5a2a900a3
:103f78008003eb000003eb008002eb00140020003c
:103f88008001eb00020f2000c1322800402e2200e1
:103f9800c4f307008003eb000003eb008002eb0092
:103fa800140020008001eb00020f200031332800ac
:103fb800802c2200bbf30700fcfd0700ffff370041
:020000040000fa
:103fc8000000fa001500070060e5800090077800ff
:103fd8004f00780050e588003400f9004400f900eb
:103fe8003200f9003600f9004f0778004f06be008e
:103ff8004f05be004f04be004f03be004f02be0077
:104008004f01be004f00be004200f900000006004c
:0c401800100020000080fa0000000600ec
:020000040000fa
:104024000400fa00f07c200001002000008fbe0094
:104034000000eb00200888000000eb000008880066
:104044001e0078001008880021058000f0ff280079
:10405400808060000000210000807000200588003e
:104064008460a9009460a8000481a80004a1a900a8
:0c40740005e1a8000080fa000000060032
:020000040000fa
:10408000000800000414000000000000aa1c00004a
:104090000200000002000000ef000000ac1c000065
:1040a000020000000200000000000000041c0000ec
:1040b00068000000000000006c1c00003e000000d2
:1040c00000000000ae1c0000020000000200000022
:0840d0000000000000000000e8
:020000040000fa
:1040d8000200fa0090028000000f7800ff3ffc0009
:1040e80011028000f0f12f008080600000022000a3
:1040f80000807000100288001e007800900288007e
:10410800000088000000000050e580000000e80082
:0c41180050e588000080fa00000006005e
:020000040000fa
:104124000200fa0050e580000000e90050e5880034
:1041340050e58000e00f50000a003a009002800031
:10414400000f7800ff3ffc0011028000f0f12f0007
:1041540000806000100288001e0078009002880031
:0c416400000088000080fa000000060047
:020000040000fa
:104170000200fa0090028000000f7800ff3ffc0070
:1041800011028000f0f12f0080806000000220000a
:1041900000807000100288001e00780090028800e5
:1041a00000008800000000000000eb00f0e2880042
:0c41b000ff0007000080fa00000006007d
:020000040000fa
:1041bc000400fa0010079800c4ff07001e009000ce
:1041cc00e00890001e00900070089000808f500056
:1041dc0003003a0010002000000f780002003700a6
:1041ec000000eb00000f7800cbff07001e007800ea
:0841fc000080fa00000006003b
:020000040000fa
:104204000200fa0000e2800010007800e00f500085
:1042140003003a000080eb0040e388000700370009
:1042240000e280003000900030009000000f780021
:104234001e0078001000900040e388000080fa001f
:044244000000060070
:020000040000fa
:104248000400fa0010079800a1ff07001e00900064
:1042580060089000e00f500003003a0010002000b2
:10426800000f7800020037000000eb00000f780014
:10427800aaff07001e0078000080fa000000060070
:020000040000fa
:104288000400fa00100798001e009000e008900053
:104298001e00900070089000808f500003003a00c4
:1042a80010002000000f7800020037000000eb002b
:1042b800000f78001e0078000080fa000000060059
:020000040000fa
:1042c8000600fa00200798002e009000000f7800e2
:1042d8007fff07001e007800f00890001e0078009d
:1042e8006008900000805000100798008bff0700be
:0c42f8001e0090000080fa00000006008c
:020000040000fa
:104304000400fa00100798001e0090006008900056
:10431400e00f500003003a0010002000000f780066
:10432400020037000000eb00000f78001e00780048
:084334000080fa000000060001
:020000040000fa
:10433c000000fa000001eb00600420007105200071
:10434c0023742000804978008149780082497800e4
:10435c0000002300203a88000000eb00403a88005f
:08436c000080fa0000000600c9
:020000040000fa
:104374000200fa00000f780001003700000000007e
:104384008d00070020e08000e10f5000fbff3600a5
:10439400421b02000000000000000000f8ff37008c
:020000040000fa
:1043a4000200fa0060e58000e0009000010f780050
:1043b40060e5800061e58000b1089000e4801000b1
:1043c400610098001e0078000080fa0000000600da
:020000040000fa
:1043d4000000fa0060e58000e00f500004003200a5
:1043e40060e58000901090008100e80011109800b2
:0c43f40060e580000080fa000000060078
:020000040000fa
:104400000400fa001007980033ff07001e00900018
:10441000e0089000010f780042ff07001e007800be
:084420000080fa000000060014
:020000040000fa
:104428000200fa00000f780021e380001e007800e7
:1044380001087800d1e280001e0078001100980081
:084448000080fa0000000600ec
:020000040000fa
:104450000400fa00100798001e009000e008900089
:10446000010f78001e0078000080fa0000000600ae
:020000040000fa
:104470000400fa00100798001e009000000f78005a
:104480001e0078003a0007000080fa0000000600d5
:020000040000fa
:104490000200fa0010ff0700d0e28000000f780051
:1044a00020ff07001e0078000080fa0000000600d0
:020000040000fa
:1044b0000400fa000000eb00000f7800d0e280005a
:1044c000100798001e0090000080fa00000006000f
:020000040000fa
:1044d0000200fa00000f78001e0078008000eb0058
:0c44e000410098000080fa000000060077
:020000040000fa
:1044ec000000fa0000e08000e13f21000080500055
:0844fc000080fa000000060038
:020000040000fa
:104504000000fa0050e380000000e80050e3880057
:084514000080fa00000006001f
:020000040000fa
:10451c000200fa0060e58000000f78001e007800b1
:08452c000080fa000000060007
:020000040000fa
:104534000000fa000000eb0000e088000080fa00b0
:04454400000006006d
:020000040000fa
:104548000000fa001000200010e388000080fa0044
:044558000000060059
:020000040000fa
:10455c000000fa000000eb00001688000080fa0052
:04456c000000060045
:020000040000fa
:104570000200fa00000f78000080fa000000060038
:020000040000fa
:104580000000fa00c0e280000080fa00000006008f
:020000040000fa
:104590000200fa00000f78000080fa000000060018
:020000040000fa
:1045a0000400fa00000f780011079800ffff3700a1
:020000040000fa
:0c45b0000000fa000080fa000000060085
:020000040000fa
:0c45bc000000fa000080fa000000060079
:020000040000fa
:0c45c8000200fa00000f7800ffff37002f
:020000040000fa
:0c45d4000000fa000080fa000000060061
:020000040000fa
:0845e0000040da000000fe00bb
:020000040000fa
:020000040002f8
:04aff800bff900009d
:020000040000fa
:020000040002f8
:04affc00ff3f000013
:00000001FF
